:020000040000fa
:080000000002040000000000f2
:020000040000fa
:040008008c04000064
:020000040000fa
:04000c008c04000060
:020000040000fa
:040010008c0400005c
:020000040000fa
:040014008c04000058
:020000040000fa
:040018008c04000054
:020000040000fa
:04001c008c04000050
:020000040000fa
:040020008c0400004c
:020000040000fa
:040024008c04000048
:020000040000fa
:040028008c04000044
:020000040000fa
:04002c008c04000040
:020000040000fa
:040030008c0400003c
:020000040000fa
:04003400c003000005
:020000040000fa
:040038008c04000034
:020000040000fa
:04003c008c04000030
:020000040000fa
:040040008c0400002c
:020000040000fa
:04004400fa020000bc
:020000040000fa
:040048008c04000024
:020000040000fa
:04004c008c04000020
:020000040000fa
:040050008c0400001c
:020000040000fa
:040054001004000094
:020000040000fa
:040058004804000058
:020000040000fa
:04005c008c04000010
:020000040000fa
:040060008c0400000c
:020000040000fa
:040064008c04000008
:020000040000fa
:040068008c04000004
:020000040000fa
:04006c008c04000000
:020000040000fa
:040070008c040000fc
:020000040000fa
:040074008c040000f8
:020000040000fa
:040078008c040000f4
:020000040000fa
:04007c008c040000f0
:020000040000fa
:040080008c040000ec
:020000040000fa
:040084008c040000e8
:020000040000fa
:040088008c040000e4
:020000040000fa
:04008c008c040000e0
:020000040000fa
:040090008c040000dc
:020000040000fa
:040094008c040000d8
:020000040000fa
:040098008c040000d4
:020000040000fa
:04009c008c040000d0
:020000040000fa
:0400a0008c040000cc
:020000040000fa
:0400a4008c040000c8
:020000040000fa
:0400a8008c040000c4
:020000040000fa
:0400ac008c040000c0
:020000040000fa
:0400b0008c040000bc
:020000040000fa
:0400b40072030000d3
:020000040000fa
:0400b8008c040000b4
:020000040000fa
:0400bc008c040000b0
:020000040000fa
:0400c0008c040000ac
:020000040000fa
:0400c4008c040000a8
:020000040000fa
:0400c8008c040000a4
:020000040000fa
:0400cc008c040000a0
:020000040000fa
:0400d0008c0400009c
:020000040000fa
:0400d4008c04000098
:020000040000fa
:0400d8008c04000094
:020000040000fa
:0400dc008c04000090
:020000040000fa
:0400e0008c0400008c
:020000040000fa
:0400e4008c04000088
:020000040000fa
:0400e8008c04000084
:020000040000fa
:0400ec008c04000080
:020000040000fa
:0400f0008c0400007c
:020000040000fa
:0400f4008c04000078
:020000040000fa
:0400f8008c04000074
:020000040000fa
:0400fc008c04000070
:020000040000fa
:040100008c0400006b
:020000040000fa
:040104008c04000067
:020000040000fa
:040108008c04000063
:020000040000fa
:04010c008c0400005f
:020000040000fa
:040110008c0400005b
:020000040000fa
:040114008c04000057
:020000040000fa
:040118008c04000053
:020000040000fa
:04011c008c0400004f
:020000040000fa
:040120008c0400004b
:020000040000fa
:040124008c04000047
:020000040000fa
:040128008c04000043
:020000040000fa
:04012c008c0400003f
:020000040000fa
:040130008c0400003b
:020000040000fa
:040134008c04000037
:020000040000fa
:040138008c04000033
:020000040000fa
:04013c008c0400002f
:020000040000fa
:040140008c0400002b
:020000040000fa
:040144008c04000027
:020000040000fa
:040148008c04000023
:020000040000fa
:04014c008c0400001f
:020000040000fa
:040150008c0400001b
:020000040000fa
:040154008c04000017
:020000040000fa
:040158008c04000013
:020000040000fa
:04015c008c0400000f
:020000040000fa
:040160008c0400000b
:020000040000fa
:040164008c04000007
:020000040000fa
:040168008c04000003
:020000040000fa
:04016c008c040000ff
:020000040000fa
:040170008c040000fb
:020000040000fa
:040174008c040000f7
:020000040000fa
:040178008c040000f3
:020000040000fa
:04017c008c040000ef
:020000040000fa
:040180008c040000eb
:020000040000fa
:040184008c040000e7
:020000040000fa
:040188008c040000e3
:020000040000fa
:04018c008c040000df
:020000040000fa
:040190008c040000db
:020000040000fa
:040194008c040000d7
:020000040000fa
:040198008c040000d3
:020000040000fa
:04019c008c040000cf
:020000040000fa
:0401a0003a0300001e
:020000040000fa
:0401a4008c040000c7
:020000040000fa
:0401a8008c040000c3
:020000040000fa
:0401ac008c040000bf
:020000040000fa
:0401b0008c040000bb
:020000040000fa
:0401b4008c040000b7
:020000040000fa
:0401b8008c040000b3
:020000040000fa
:0401bc008c040000af
:020000040000fa
:0401c0008c040000ab
:020000040000fa
:0401c4008c040000a7
:020000040000fa
:0401c8008c040000a3
:020000040000fa
:0401cc008c0400009f
:020000040000fa
:0401d0008c0400009b
:020000040000fa
:0401d4008c04000097
:020000040000fa
:0401d8008c04000093
:020000040000fa
:0401dc008c0400008f
:020000040000fa
:0401e0008c0400008b
:020000040000fa
:0401e4008c04000087
:020000040000fa
:0401e8008c04000083
:020000040000fa
:0401ec008c0400007f
:020000040000fa
:0401f0008c0400007b
:020000040000fa
:0401f4008c04000077
:020000040000fa
:0401f8008c04000073
:020000040000fa
:0401fc008c0400006f
:020000040000fa
:040200008c0400006a
:020000040000fa
:040204008c04000066
:020000040000fa
:040208008c04000062
:020000040000fa
:04020c008c0400005e
:020000040000fa
:040210008c0400005a
:020000040000fa
:040214008c04000056
:020000040000fa
:040218008c04000052
:020000040000fa
:04021c008c0400004e
:020000040000fa
:040220008c0400004a
:020000040000fa
:040224008c04000046
:020000040000fa
:040228008c04000042
:020000040000fa
:04022c008c0400003e
:020000040000fa
:040230008c0400003a
:020000040000fa
:040234008c04000036
:020000040000fa
:040238008c04000032
:020000040000fa
:04023c008c0400002e
:020000040000fa
:040240008c0400002a
:020000040000fa
:040244008c04000026
:020000040000fa
:040248008c04000022
:020000040000fa
:04024c008c0400001e
:020000040000fa
:040250008c0400001a
:020000040000fa
:040254008c04000016
:020000040000fa
:040258008c04000012
:020000040000fa
:04025c008c0400000e
:020000040000fa
:040260008c0400000a
:020000040000fa
:040264008c04000006
:020000040000fa
:040268008c04000002
:020000040000fa
:04026c008c040000fe
:020000040000fa
:040270008c040000fa
:020000040000fa
:040274008c040000f6
:020000040000fa
:040278008c040000f2
:020000040000fa
:04027c008c040000ee
:020000040000fa
:040280008c040000ea
:020000040000fa
:100400000f2221000eff21000e01880000000000d5
:10041000000020000000e000020032000001200087
:100420002002880014000700bb0107000000e00064
:1004300003003a0060e721000100200002003700bd
:100440000000200001002000810f70000100320038
:100450000f000700000020000000e0000200320052
:100460000000020000000000101e0200000000005a
:100470000040da000000fe00a00120000000e000c3
:1004800002003200002020009001880000000600d9
:10049000a1028800800478000000eb001f003700f4
:1004a000e284440054a0b4009905ba00e2844400f8
:1004b00054a0b4009906ba00e284440054a0b400e9
:1004c0000006eb00476fde00fd07b200ae018800ba
:1004d000636ce10003003a000ad801000000eb0061
:1004e0000e003700606ce10008003a00004deb00a0
:1004f0000a05e800020039003420ec000af0a000f0
:100500008b05e900f9ff3e00040037006168e10057
:10051000010032000086eb000b00070019c7ba008b
:100520000e04e0001905ba0003003a000a00e000da
:10053000dbff3a0000000600fe07b200ae028800b2
:100540008a047800f5ff37000cd0a300e20f4d00bd
:100550001c00390089027800354dba000a05e80010
:10056000020039003420ec000af0a0008b05e900fd
:100570000f003200254dba000a05e80002003900dc
:100580003420ec000af0a0008b05e90008003200de
:100590000c00e0000600320015cdba000a05e800a4
:1005a000020039003420ec000af0a0008b05e900bd
:1005b0008984e80054a0b4000b00e000e2ff3a0098
:1005c000000006009902ba00055d78008b05e9007d
:1005d000f7ff3200c82ade00055d78008b05e900d0
:1005e000f3ff32000c00e000f1ff320019ddba0029
:1005f000eeff37003600f800809fbe00829fbe00ed
:10060000849fbe00869fbe003200f8003400f800d0
:1006100010002000a0018800002020009001880028
:10062000000000000200fa000000eb00000f78005c
:1006300000e8a900600e8000000f78001e0078001e
:10064000cf80de0009020700940307001f030700a4
:100650000080fa003400f9003200f9004f03be00b8
:100660004f02be004f01be004f00be003600f90031
:10067000004006003600f800809fbe00829fbe004a
:10068000849fbe00869fbe003200f8003400f80050
:1006900010002000a00188000020200090018800a8
:1006a000000000000000fa000bc8a90021eca9001e
:1006b00010c0b300490d07000040eb00200d0700fb
:1006c0000080fa003400f9003200f9004f03be0048
:1006d0004f02be004f01be004f00be003600f900c1
:1006e000004006003600f800809fbe00829fbe00da
:1006f000849fbe00869fbe003200f8003400f800e0
:1007000010002000a0018800002020009001880037
:10071000000000000000fa0050208000620060002d
:100720000000e0000c0032000121800000402000a9
:10073000008060000000e00006003200142ea800d7
:10074000b08f80000000e800b08f8800290b070000
:100750002144a9000a24a9000468a9000080fa0025
:100760003400f9003200f9004f03be004f02be0012
:100770004f01be004f00be003600f90000400600e9
:100780003600f800809fbe00829fbe00849fbe009e
:10079000869fbe000000fa000068a90005e1a900dc
:1007a000fad1bf000040e800faf1b70043030700a8
:1007b000508a88005b0b0700408a8800408a8000ce
:1007c00030808800508a800040808800608a8000e5
:1007d000508088003064a800a11f2100914078005b
:1007e00040c6b30080cf500003003400b08f8000bb
:1007f000c08f8800fa71ef000021ef0005e1a8002a
:10080000142ea9000080fa004f03be004f02be0064
:100810004f01be004f00be003600f9000040060048
:100820003600f800809fbe00829fbe00849fbe00fd
:10083000869fbe003200f8003400f800100020004f
:10084000a001880000202000900188000000000026
:100850000200fa000168a9009f000700004f78001d
:100860009e407800201d2100600b07000080fa00e8
:100870003400f9003200f9004f03be004f02be0001
:100880004f01be004f00be003600f90000400600d8
:100890003600f800809fbe00829fbe00849fbe008d
:1008a000869fbe003200f8003400f80010002000df
:1008b000a0018800002020009001880000000000b6
:1008c0000400fa000e80e80080007800001c21007f
:1008d000600b0700000f78000188a9001e00780057
:1008e0000000e00003003a002e4090000000fb00f2
:1008f000820007000080fa003400f9003200f9009d
:100900004f03be004f02be004f01be004f00be00ad
:100910003600f900004006000040da000000fe004a
:10092000006188001161880042618800a36188002d
:1009300000000600006288001162880042628800a0
:10094000a36288000000060000638800116388002d
:1009500042638800a36388000000060020618800cd
:100960000000060020628800000006002063880066
:1009700000000600d061880000000600d0628800f8
:1009800000000600d06388000000060000608800b8
:100990001160880022608800336088000000060033
:1009a0005061880061618800000006005062880084
:1009b000616288000000060050638800616388005f
:1009c00000000600306188000000060030628800e8
:1009d00000000600306388000000060000e8a9005f
:1009e000e7006000f2ff2800cc08dd001342800021
:1009f0000301610068006000028170004300de00b6
:100a00001242880061006000f1f72f004700dd000e
:100a100002418000828060008100700001418800f6
:100a2000000006000621ef006108880080088800a9
:100a30001061a900000006000168a900e70060003d
:100a40000188a900cc08dd0000017800f3ff280030
:100a50000207b20024428000848161004411de005c
:100a600083817000e800600023428800c308de0034
:100a700083ff2f00e18060003442800084816100a8
:100a8000cb08dd00830171000008b200334288000a
:100a9000f27f2f004700de00034180000301610068
:100aa00061006000028170004c00dd00024188009e
:100ab000f1ff2e00044180008480600081007000fe
:100ac00001418800000006004211880000118800e2
:100ad000111188000000060000118000660060000f
:100ae000e60f500002003a003011800000000600be
:100af00030118000f00fb2000000060001118000ec
:100b0000e6806000e68f500001003200f00fb20076
:100b100020118800000006000000050003f0a2007c
:100b2000889fbe008a9fbe008c1f78000d010700c1
:100b3000140133006450e1004f0032006420e100f2
:100b40005200320003826c0007003b000905d00010
:100b50000306d000820f54000c065d00020039002d
:100b60000200320089017800030678008582550072
:100b700004003d000003fd008103fd008502ea0042
:100b80008b854200840f720002003b006000100061
:100b9000e08018006011b8000005eb007a28e10041
:100ba0000a00390006007800c75ddd00f707b200d3
:100bb000878075002d003700828171000a0178005e
:100bc000610560008180d1000080d3008502e900ca
:100bd000f9ff3b00060440008784480002003b0008
:100be00060041400e0841c000988a30007003200a0
:100bf0008a81710082817100610164008904d100e1
:100c00000884d3008b05e800170037000978a3009b
:100c100013003a000b00e000130034008b05e900dc
:100c20000804440089844c000a4474000978a30035
:100c30000d003a000b00e000070034008b05e900ce
:100c40000804440089844c0001003a000b00200095
:100c50000978a300f7ff32000001eb000200370023
:100c6000828171000a017800830007000cf0a70060
:100c700001f0a000cc0037006420e10002003a003f
:100c8000838f6c00cc0033000801be000200be0060
:100c9000c5003700889fbe008a9fbe008c1f780069
:100ca000b0000700b700330003866c006450e10019
:100cb0002e0032006420e100330032006150e10078
:100cc0002f0032006120e10031003200858555009f
:100cd000eb07b000090020000804200005003700e1
:100ce0000804440089844c000a00310006034300d4
:100cf00087834b000001530081815b00f8ff3300c4
:100d00000203be000800a0000804440089844c00cf
:100d1000f6ff3900c639dd0083017300010032009f
:100d2000130020008904d1000884d3000998a3008f
:100d3000050032000800a7000300a0008904d100cc
:100d40000884d3008b05e8008904d1000884d3000f
:100d50000001eb000281d2004700070001f0a10072
:100d60000cf0a70001f0a0008f0037006420e10024
:100d7000910032000801be000200be00f7ff3700fc
:100d80006120e1008c0032006000b800f3ff370002
:100d90000000200001f82700f0ff3700839f680063
:100da0000100e00002003d0060001000e08018003b
:100db0000300e00002003d0060011100e081190025
:100dc000b40007004f00e00002003b00600010008c
:100dd000e08018000000060014002000c00037006a
:100de000f4ff2f00be0037000001be0048000700de
:100df0000470a70003f0a1006509b10016003200dd
:100e00000d0035006828e10006003500f0ff2f00d6
:100e1000f1ff27000300e00013003b000100280061
:100e20000000050000004000818048008502e900c4
:100e3000fcff3a0008003700f88f420002003c0037
:100e40008000eb00000005008100d1000080d3008d
:100e50008502e800fcff3a000300e00002003b00ce
:100e600060001000e0801800000006004f89de00de
:100e700082017800b50037008100200061805500b4
:100e80000b003d000b00200061fe2f000100e1007f
:100e90001d00340082817100610164008904d10069
:100ea0000884d3000000e800faff3a007100200037
:100eb000610064000300700002006000090032005d
:100ec00061044400e0844c000988a500050032005c
:100ed0008b05e8006808e10002003a008904d100af
:100ee0000884d300f20f20000258e10005003d0005
:100ef000c75ddd00f907b200898075000800780041
:100f0000000006000bf827008b00780000000500a9
:100f1000c70ade00f107b200f50fb2000800320088
:100f2000e1cf4200020032000170a0002400050061
:100f3000810f700001003200040805004400050024
:100f4000810f700002003a00140005008502e900dc
:100f50000000400081c04800fcff3b000170a00081
:100f6000240005000004be00e9ff07000003be00e6
:100f70000405be000200be00e5ff0700844f7500b7
:100f8000000006000200be006450e10005003600cb
:100f90006420e100020036000968a30001003a0065
:100fa0000800be000160a0004f0678004f05be009b
:100fb0004f04be0000000600f0ff2f00f1ff2700e5
:100fc000f9ff3700889fbe008a9fbe008c1f780003
:100fd000e4ff0700ebff330003866c006450e10080
:100fe000240032006420e100270032006150e1005b
:100ff000220032006120e100210032008b85420096
:10100000eb07b1000134b800003ab8000804420010
:1010100089844a00013ab8000030b8008880400056
:1010200009014a00040033000000400081804800ac
:10103000020149008b05e900c909dd008301700048
:101040000100320013002000c814de004814dd0047
:101050004709de001200b200c808de0008847000f4
:1010600085ff070001f0a1000cf0a70001f0a0002f
:10107000cdff37006120e100cfff32000801be0044
:101080000200be00f7ff37006150e100fcff3a00ac
:10109000c9ff37006022b800060220000000d0001f
:1010a0008180d2000482d2008582d2000000a0009c
:1010b0000202520083825a00030031000202420001
:1010c00083824a000000a1000603e900f3ff3a0012
:1010d00000000600efff07000400be00000006004d
:1010e000889fbe008a9fbe00841f78009dff070076
:1010f0004f00780011003300f0ff2f00838f6c0049
:1011000006003b00040565000a00a7000800370040
:1011100009f0a6001000200008003700820f5400dc
:10112000838f5c00030039001000200001003e00a6
:101130000000200009f0a7000000ea004f05be00f3
:101140004f04be000000e00000000600881f780089
:10115000030478000300e00007003d006000100079
:10116000e080180060011900e081190002003b00d6
:1011700001f02d00030037000400070008f0a7006d
:1011800001f0a0004f04780000000600889fbe0018
:101190008a9fbe0000827000040271000482710008
:1011a000260032000004be000200be006011b8003c
:1011b0006b092000950220000182cf000a0039004f
:1011c0000541b1000082cf00070039000541b100a0
:1011d0000982cf00040039000541b1000882cf0028
:1011e000010039000541b1000542520012003200f1
:1011f0000a003b0082817100610164008100d1001e
:101200000080d3008984d3000884d3008b05e800d4
:101210000442e800f7ff3a000700370008044400e2
:1012200089844c0000004800818048008b05e9005b
:101230000442e900f9ff3a000fff07004f05be0026
:101240004f04be0000000600800178000200370055
:10125000b15978000201e9000200e000fcff3a0009
:041260000000060084
:020000040000fa
:1012640025300000386c00005820000000200000e9
:101274002530000032580000002000002530000016
:10128400345800000020000025300000384c0000d5
:0412940058000000fe
:020000040000fa
:101298000000fa005e030700660307009f030700cb
:1012a8006f030700d30307006022b8006011b8007d
:1012b800c05a2c0071722300480007000080fa0011
:1012c800000006000400fa00889fbe00068b80001c
:1012d800178b8000e48a8000f58a8000c28a80002b
:1012e800d38a8000a08a8000b18a8000888a800022
:1012f800998a8000869fbe000403be000202be00d9
:101308000001be000800be0052020700e487570033
:10131800020020000348240028ff0700b0fe070051
:1013280010079800318b80001e009000008040005c
:10133800308b8800318b800000402000808f500067
:101348000300340000402000308b8800060037007e
:10135800318b800000c02f00808f500002003d00bc
:1013680000c02f00308b8800308b80000000e00028
:101378000500340010002000000f7800308b80003a
:10138800408b8800050037000000eb00000f780054
:10139800308b80000000ea00408b8800c5030700fe
:1013a8004ff1b700408b8000808d88009e04780044
:1013b800408b800000047800be0007000901780017
:1013c800880078001901070010c0b300da09070087
:1013d8004f04be000080fa00000006000c00fa006e
:1013e800008fbe0022079800330798004407980032
:1013f800550798001e0178009e019000828a880097
:10140800938a88002e019000be019000a28a88006d
:10141800b38a88004e019000de019000c28a8800dd
:10142800d38a88000080fa00000006000400fa0051
:10143800008fbe001e0078009e00900001f0a20000
:1014480002002000a34f240010fe0700b24721002d
:10145800e3002400d9fe070052d2200093ac2300f9
:101468000afe0700e08a8800f18a8800e08a800086
:10147800f18a800002002000a3472400cffe070065
:1014880057fe070000007800a08d88000080fa0051
:10149800000006000400fa00008fbe001e0178005c
:1014a8009e019000028b8800138b88000080fa0050
:1014b800000006000000fa00008b8000118b8000fd
:1014c80001f0a20002002000a34f2400bbfe070089
:1014d80052d2200093ac2300b8fe070040fe07005c
:1014e800000078000080fa00000006000000fa0002
:1014f800c50907000080fa00000006000800fa008d
:10150800000f780011079800220798003307980009
:101518001e007800e20f500024003200e30f500054
:1015280042003200e10f500060003a001e009000b7
:1015380000407800614060000080fb0061006000ae
:101548004900dd00116180000190a10001007000d8
:10155800106188002e009000004078006140600013
:101568000080fb00610060004800dd001161800020
:101578000180a10001007000106188003e00900009
:1015880000407800634060000080fb00630060005a
:101598004600dd0012618000f1f32f008100610038
:1015a8000100700010618800400037001e009000a4
:1015b80000407800614060000080fb00610060002e
:1015c8004900dd00116280000190a1000100700057
:1015d800106288002e009000004078006140600092
:1015e8000080fb00610060004800dd00116280009f
:1015f8000180a10001007000106288003e00900088
:1016080000407800634060000080fb0063006000d9
:101618004600dd0012628000f1f32f0081006100b6
:101628000100700010628800200037001e00900042
:1016380000407800614060000080fb0061006000ad
:101648004900dd00116380000190a10001007000d5
:10165800106388002e009000004078006140600010
:101668000080fb00610060004800dd00116380001d
:101678000180a10001007000106388003e00900006
:1016880000407800634060000080fb006300600059
:101698004600dd0012638000f1f32f008100610035
:1016a8000100700010638800000000000080fa004c
:1016b800000006000000fa009070800070006000d2
:1016c8000000e0000b003200107080007000600025
:1016d8000000e00007003a0091708000000220003e
:1016e800008060000000e0000200320010002000ce
:1016f8004c00370090708000700060000000e0002f
:101708000b00320010708000700060000000e000e4
:1017180007003a00917080000002200000806000fd
:101728000000e00002003a00200020003d003700e1
:1017380090708000700060000000e0000b00320034
:1017480010708000700060000000e00007003200a8
:101758009170800000022000008060000000e0001e
:1017680002003a00300020002e0037009070800000
:10177800700060000000e0000b003a00107080006c
:10178800700060000000e0000700320091708000e7
:1017980000022000008060000000e00002003a0023
:1017a800400020001f00370090708000700060002b
:1017b8000000e0000b003a0010708000700060002c
:1017c8000000e00007003200917080000002200055
:1017d800008060000000e00002003200500020009d
:1017e8001000370090708000700060000000e0007a
:1017f8000b003a0010708000700060000000e000ec
:1018080007003a009170800000022000008060000c
:101818000000e000020032006000200001003700f4
:101828000000eb000080fa00000006000600fa0045
:10183800000f780011079800220798002e009000ea
:1018480000407800bef1b7002e0090000000e000d4
:1018580072003a001e007800e30f50002e0032009c
:10186800e30f500005003e00e10f50000a0032006f
:10187800e20f500018003200dc003700e50f50007e
:1018880045003200e50f500033003900e60f5000e4
:1018980052003200d500370023002000120020003b
:1018a800110020003000200014ff07008001eb0029
:1018b8000001eb008000eb00200020000fff070074
:1018c8008001eb0012002000110020001000200011
:1018d8000aff0700c500370023002000120020007f
:1018e800110020003000200004ff07008001eb00f9
:1018f800120020001100200020002000fffe070039
:101908008001eb000001eb008000eb0010002000dc
:10191800fafe0700b50037008001eb001200200036
:101928001100200030002000f4fe070023002000f2
:10193800120020001100200020002000effe070008
:101948008001eb000001eb008000eb00100020009c
:10195800eafe0700a50037008001eb000001eb005c
:101968008000eb0030002000e4fe07002300200088
:10197800120020001100200020002000dffe0700d8
:101988008001eb0012002000110020001000200050
:10199800dafe0700950037008001eb000001eb003c
:1019a8008000eb0030002000d4fe07008001eb002f
:1019b800120020001100200020002000cffe0700a8
:1019c8002300200012002000110020001000200039
:1019d800cafe070000000000840037008001eb0009
:1019e800120020001100200030002000c3fe070074
:1019f8008001eb000001eb008000eb0020002000dc
:101a0800befe070023002000120020001100200065
:101a180010002000b9fe0700740037002e00900067
:101a2800e10f500071003a001e007800e30f5000eb
:101a38002e003200e30f500005003e00e10f500079
:101a48000a003200e20f5000180032006700370029
:101a5800e50f500045003200e50f50003300390013
:101a6800e60f500051003200600037008001eb00a3
:101a78000001eb008000eb00300020009ffe070013
:101a88002300200012002000110020002000200068
:101a98009afe07008001eb001200200011002000d0
:101aa8001000200095fe0700500037008001eb0071
:101ab8000001eb008000eb00300020008ffe0700e3
:101ac8008001eb00120020001100200020002000ff
:101ad8008afe0700230020001200200011002000c9
:101ae8001000200085fe0700400037008001eb0051
:101af8001200200011002000300020007ffe0700a7
:101b08008001eb000001eb008000eb0020002000ca
:101b18007afe070023002000120020001100200098
:101b28001000200075fe0700300037002300200059
:101b38001200200011002000300020006ffe070076
:101b48008001eb000001eb008000eb00200020008a
:101b58006afe07008001eb0012002000110020003f
:101b68001000200065fe0700200037002300200039
:101b78001200200011002000300020005ffe070046
:101b88008001eb001200200011002000200020003e
:101b98005afe07008001eb000001eb008000eb001b
:101ba8001000200055fe0700100037008001eb00f0
:101bb8001200200011002000300020004ffe070016
:101bc8002300200012002000110020002000200027
:101bd8004afe07008001eb000001eb008000eb00eb
:101be8001000200045fe0700000000001e009000c5
:101bf8000000e0000f003a0023002000120020003f
:101c080011002000100020003cfe070023002000e7
:101c180012002000110020002000200037fe0700dd
:101c280023002000120020001100200030002000b6
:101c380032fe07001e00900060fb07001e009000a7
:101c480060fb07001e00900060fb07000080fa00a0
:101c5800000006001000fa00889fbe00008fbe003a
:101c68002207980033079800440798005507980002
:101c780066079800770798006e019000fe019000b3
:101c8800f28c8800038d88003eb99700ceb9970082
:101c9800128d8800238d88006e009000fe00900051
:101ca8004ffc070000007800508d88003eb8970070
:101cb800ceb897004afc070000007800608d8800c5
:101cc8003eb99700ceb997006e009000fe009000d4
:101cd80090fb0700b08b8800c18b8800b08b800018
:101ce800c18b80001e0178009e019000b3fc0700a4
:101cf800108c8800218c8800b08b8000c18b8000fc
:101d08002e019000be019000acfc07000002be004e
:101d1800308c8000418c80000001be000400be00b1
:101d28007dfb0700308c8800418c8800b48b8000d4
:101d3800c58b8000d08b8000e18b80000001be0045
:101d48000400be0073fb07004e019000de01900006
:101d58009afc0700508c8800618c8800308c8000c9
:101d6800418c800018c0b3000200200003f8230053
:101d780019fc07000000e00001003d000044eb00f2
:101d88000804e000050032000000200001f82300ec
:101d9800308c8800418c88000f003700308c800020
:101da800418c800018c0b3000200200003f82b000b
:101db80007fc07000000e000010035000044eb00cc
:101dc8000804e000040032000000200001f82b00a5
:101dd800308c8800418c8800148c8000258c800011
:101de800308c8000418c80000001be000400be00e1
:101df80049fb07000002be00508c8000618c800007
:101e08000001be000400be0043fb0700708c880080
:101e1800818c8800708c8000818c800018c0b30091
:101e28000200200003f82300ebfb07000000e0009d
:101e380001003d000044eb000804e00015003200fa
:101e48000000200001f82300708c8800818c880035
:101e5800788c8000898c8000148c8000258c800010
:101e6800508c8000618c80000001be000400be0020
:101e780029fb07000001be000800be0025fb070083
:101e8800308c8800418c880010c0b30044070700dc
:101e980022003700708c8000818c800018c0b3004d
:101ea8000200200003f82b00c9fb07000000e00037
:101eb800010035000044eb000804e0001500320082
:101ec8000000200001f82b00708c8800818c8800ad
:101ed800788c8000898c8000148c8000258c800090
:101ee800508c8000618c80000001be000400be00a0
:101ef80009fb07000001be000800be0005fb070043
:101f0800308c8800418c880010c0b300240707007b
:101f1800020037000040eb0021070700108c80000a
:101f2800218c800002002000a347240023fc070026
:101f3800abfb070080007800601b210001087800d7
:101f4800308c8000418c800002002000a3472400d0
:101f58001afc0700a2fb070080007800601b210024
:101f680011009800508c8000618c800002002000d5
:101f7800a347240011fc070099fb070080007800a4
:101f8800601b210021009800708c8000818c8000eb
:101f980002002000a347240008fc070090fb07006c
:101fa80080007800601b210031009800708c800050
:101fb800818c800002002000832c2400fffb070096
:101fc80087fb070000007800608a8800d08b8000bb
:101fd800e18b8000f08b8800018c8800b08b80003a
:101fe800c18b8000d08b8800e18b8800708c8000ca
:101ff800818c8000308d8800418d8800708c800035
:10200800818c80004f04be000080fa0000000600aa
:102018000000fa00108ea8001a8ea800008ea800f2
:102028000a8ea80010aea8001aaea8000080fa0018
:10203800000006000000fa002bc8a800106ea800d7
:10204800c135800000f82f00808060003002200039
:1020580001007000c03588000080fa00000006000a
:102068000000fa00419c200050f92f006bfa07008d
:10207800b0ff2f0057fa07000080fa0000000600a2
:102088000c00fa00000f7800120798002307980048
:102098003407980045079800510798001e007800fb
:1020a800de009000410098001e0078003e0190007c
:1020b800ce01900022009800330098001e0078009e
:1020c8001e019000ae0190000288be000080fa0058
:1020d800000006000000fa0000017800a0162100a8
:1020e80082007800b0187800a0107800e4804000e2
:1020f80064004000b0187800a0107800e480400028
:1021080064004000900878008180e8000080e800c2
:10211800020078000080fa00000006000000fa00c3
:1021280010cea80010eea800e135800000f82f00be
:10213800808060006002200001007000e0358800a7
:10214800e1358000f00f28008080600000702200d8
:1021580001007000e0358800c1a1a800010e8000d0
:10216800f03f2e0080806000008021000100700098
:10217800000e8800010e8000f0cf2f000080600064
:10218800000e8800010e8000f0f82f00008060002b
:10219800000e8800c061a900c041a900010e80009e
:1021a800c0ff2f0000806000000e8800c3e1a90076
:1021b800c3c1a800110e8000f07f2c0000806000d1
:1021c800100e8800110e8000f09f2f000080600024
:1021d800100e8800c301a900c2e1a900c2c1a9006c
:1021e800c2a1a900c281a900c1e1a8000080fa002b
:1021f800000006000000fa00148a8000038a8000ac
:1022080002908000f18f8000e08f8000c2f9070003
:1022180010908000cff90700208a8000d3f90700ca
:1022280071908000308a8000dbf90700218ca800bb
:10223800148a8000038a800002908000f18f800059
:10224800e08f8000b9f9070010908000c3f90700fb
:10225800208a8000c7f9070071908000308a8000ca
:10226800d0f90700148a8000038a80000290800059
:10227800f18f8000e08f8000b1f907001090800096
:10228800b8f90700208a8000bcf907007190800027
:10229800308a8000c6f90700639080005290800061
:1022a8004190800030908000b6f907000080fa0065
:1022b800000006000000fa004ed1bf00e14f5000b8
:1022c8000e003a0074d1bf000040e80074f1b70076
:1022d800411721009140780010c3b30080cf50000f
:1022e800040036007471ef004e71ef000040eb00ff
:1022f8000f00370010c0b3000d003700618a80005e
:1023080000052000808f500004003c00618a800096
:1023180000fb2f00808f500004003d0010c0b30068
:102328004ef1b70010c0b300010037000040eb00c9
:102338000080fa00000006000200fa00004f780052
:102348001e407800ea4f500002003a00d0c0b300a7
:10235800f9ff0700c09080000000e000050032008f
:10236800c09080001e4878000000e800c0908800f7
:1023780006003700b09080000000e0000300320043
:10238800b19080001e407800010001000080fa0032
:10239800000006000200fa00000f78000400370071
:1023a8001e007800104078001e0fe800e2ff0700ca
:1023b8001e007800104078000004e000f8ff3a00a2
:1023c8000080fa00000006000600fa0010079800d6
:1023d80021079800b1908000010f78009e009000be
:1023e800b1908800060037002e0090001040780059
:1023f800ae0090008100e80021079800ceff07009a
:102408002e009000104078000004e000f6ff3a002b
:102418009e007800b19088000080fa000000060055
:102428002600fa0010179800211798001e10900037
:1024380090407800614f98001e1090000000e8005e
:10244800101798006e4890000004e0006801320000
:10245800ee48900050c2b30080cf50000300320015
:102468006e489000b4ff0700600137000000eb00e1
:10247800400798001e10900090407800614f980027
:102488001e1090000000e80010179800ee48900019
:1024980000c3b30080cf500009003a0010002000ac
:1024a800400798001e10900090407800614f9800f7
:1024b8001e1090000000e800101798000c0037006c
:1024c800ee489000d0c2b30080cf500008003a0018
:1024d80020002000400798001e10900090407800cf
:1024e800614f98001e1090000000e8001017980037
:1024f8000000eb00300798000e0037003e00900007
:10250800ea00b900800078006e4890000000fb00e7
:10251800008040000003b100300798001e109000b2
:1025280090407800614f98001e1090000000e8006d
:1025380010179800ee489000f0c2b30080cf50000a
:1025480004003400ee48900090c3b30080cf5000e0
:10255800eaff3400ee489000c0c6b30080cf5000b8
:1025680004003200ee489000c0c4b30080cf500091
:1025780009003a004e0090000020a0004007980093
:102588001e10900090407800614f98001e10900037
:102598000000e800101798006e4890000004e00062
:1025a80015013200ee489000714f9800fe489000e7
:1025b80000c6b30080cf500004003400fe489000ed
:1025c80000ceb30000c04000704f98007e489000d5
:1025d8000000fb00f1042000810f5000560032007b
:1025e800f1042000810f50000a003c003104200053
:1025f800810f50004500320041042000810f500037
:102608005000320021042000810f500047003200a2
:102618005200370051052000810f50004900320058
:1026280081052000810f500049003200310520004b
:10263800810f500049003a002e1090000080e900f8
:10264800201798002e10900090007800010f980035
:102658000000eb0020079800030037002e009000d0
:102668000000e800200798008e0890002e009000d7
:1026780000804000104078000004e000f7ff3a00b6
:102688000200370000c2b3002bff07004e00900085
:10269800620060000000e0000b003a0010c0b300c8
:1026a8002e019000be009000810f510001003900fa
:1026b8000040eb00ae0090008100e8002107980080
:1026c8000004e000efff3a000e08900031ff070019
:1026d8000200370000c2b30017ff070010c0b300a4
:1026e8002e019000be009000810f510001003900ba
:1026f8000040eb00ae0090008100e8002107980040
:102708000004e000f3ff3a00b80037002e109000f4
:102718000080e900201798002e1090001000780023
:102728000040780004ff0700b000370020002000b8
:10273800000f78000c00370080002000000f7800a0
:1027480009003700a0002000000f780006003700bd
:1027580000012000000f7800030037006e48900049
:10276800f5fe0700a10037004e00900064006000ed
:102778000000e000070032002e10900064005000b6
:10278800201798002e1090009000900010007800fc
:1027980011003700fe48900040c4b30080cf5000bd
:1027a80007003a002e1090000080e90020179800da
:1027b8002e10900010007800cf80de000600370051
:1027c8002e1090000080e900201798002e1090002d
:1027d800100078008000eb0050079800610798000f
:1027e800fe48900040c4b30080cf50000e003a006d
:1027f8005e009000ee009000e00f5000e08f58005f
:1028080009003d005e009000ee009000600010009e
:10281800e080180050079800610798004e0090006b
:102828000030a000400798000000eb001007980057
:102838001e0078008000eb005e029000ee0290001f
:102848000001be000400be0020fa0700704f980087
:102858001e0078008000eb000001be005e009000c2
:10286800ee00900009fa07005007980061079800e9
:102878007e489000e94f50000a003400ee4890006e
:1028880080c7b30080cf500002003a0070c2b30086
:102898000100370070c0b300fe48900001404000be
:1028a800704f98007e4890000043b0008040780048
:1028b8001e00900072004000017778001e00900012
:1028c8000000e800100798005e009000ee009000fd
:1028d800e00f5000e08f5800030032001e00900007
:1028e800ef0f5000d2ff36004e00900068006000e5
:1028f8000000e000070032001e0090007200400057
:10290800d1c2b300017778001e0090000000e800f3
:10291800100798009e009000210798004e00900034
:1029280061006000004078000004e000020032000e
:1029380000c3b3000100370000c2b300704f980015
:10294800020037007e4890007bfe07004e00900092
:10295800620060000000e0000b003a0010c0b30005
:102968002e019000be009000810f51000100390037
:102978000040eb00ae0090008100e80021079800bd
:102988000004e000efff3a001e0090000000e9009c
:10299800100798001e009000720040006e407800fa
:1029a80065fe07001e0090000000e000f6ff3a00f8
:1029b8000200370000c2b3005ffe070010c0b3007a
:1029c8002e019000be009000810f510001003900d7
:1029d8000040eb00ae0090008100e800210798005d
:1029e8000004e000f3ff3a0090fe37008ffe370046
:1029f8000000000001003700000000000080fa001d
:102a0800000006000200fa0068005700000f780076
:102a18009e0078004eb8970081fe07000080fa00fb
:102a2800000006000400fa00100798009e009000bd
:102a3800c190880068005700000f78009e00780059
:102a48004eb8970076fe0700c09080008040eb00eb
:102a5800014878001832ef000080fa0000000600f4
:102a68000600fa0020079800b1908000010f780056
:102a7800ae009000b19088006800570010079800d9
:102a88009e0090004eb8970065fe07009e007800f3
:102a9800b19088000080fa00000006001200fa00d9
:102aa800400798005207980063079800710798003c
:102ab800040f98005e009000ee009000809fbe001a
:102ac80020932800801f7800ceff0700e687570074
:102ad8000e089000e20f500037003200e40f50005b
:102ae80048003200e10f50005a003a00ce00900032
:102af800310798000000eb00000f78000b0037004a
:102b08001e007800be009000008040001040780051
:102b18000080fb00801f780090932800801f7800b9
:102b2800b8ff0700e48757001e0fe8007e009000fa
:102b38009e007800808f5000f1ff350000c2b3007e
:102b4800fdfd07000000eb00000f780015003700be
:102b58001e007800be009000008040001040780001
:102b6800ff4f50000c0036001e007800be00900099
:102b78000080400090407800e0c7b30080cf50004c
:102b880005003e001e007800be0090000080400056
:102b98001040780001003700e0c2b300e6fd0700ee
:102ba8001e0fe8007e0090009e007800808f500085
:102bb800e7ff350027003700ce0090001107980086
:102bc8001e009000100078009e0090008180e800b0
:102bd80011079800801f7800f0932800801f780064
:102be80088ff0700e48757007e0090000000e90096
:102bf800700798007e0090000000e000f0ff3a00a7
:102c080014003700ce009000210798002e00900095
:102c180090009000100078002e019000640141009f
:102c280022079800809fbe0050942800801f7800db
:102c380074ff0700e68757007e0090000000e90057
:102c4800700798007e0090000000e000efff3a0057
:102c580000000000a0c0b300b7fd07000080fa0024
:102c6800000006000800fa002007980031079800c5
:102c7800d09080000000e00002003a000000eb0065
:102c8800390037000000eb00000f78000300370020
:102c9800000000000100370000000000d090800014
:102ca800000001000080fb00100798001e00900043
:102cb8000000e00002003a000000eb002a003700a4
:102cc8001e009000ed0f500009003a001e00780029
:102cd800ae009000008040008040eb000148780082
:102ce800a0c0b30094fd0700100020001e003700ac
:102cf8001e009000e80f500009003a001e007800fe
:102d08000000e000060032001e0fe9001e009000df
:102d18000040780088fd070000000000dfff370052
:102d28001e009000ff0f5000d9ff34003e009000b5
:102d38000000e9009e0f5000d7ff34001e00780005
:102d4800ae009000008040009e0090008140780016
:102d5800014878001e0fe8001e009000004078002f
:102d680075fd0700cdff37000080fa00000006005f
:102d78000a00fa00200798003107980042079800d7
:102d8800d1908000010f7800ae009000d1908800ab
:102d9800ce0090003e009000b2ff07001007980098
:102da8009e007800d19088001e0090000080fa00f4
:102db800000006000c00fa00400798005107980030
:102dc8000040eb00604798005e0190006000b8008a
:102dd8000089be00050037004e0090001000780002
:102de8008000e8004e009000010878004e00900036
:102df800100078001040780040479800ce409000be
:102e080000c2b30080cf5000f3ff3200ce409000e4
:102e1800d0c2b30080cf50000b003a0010c0b300fe
:102e2800604798004e009000100078008000e8008d
:102e38004e009000010878004e00900010007800c5
:102e48001040780040479800ce40900000c3b3007f
:102e580080cf50003d003a004e00900010007800ee
:102e68008000e8004e009000010878004e009000b5
:102e78001000780010407800404798004e409000bd
:102e88000080fb0021062000810f50000f00320057
:102e980081072000810f500019003a0000c1b300db
:102ea800504798004e009000100078008000e8001d
:102eb8004e009000010878004e0090001000780045
:102ec80010407800404798002c00370020c0b3001d
:102ed800504798004e009000100078008000e800ed
:102ee8004e009000010878004e0090001000780015
:102ef8001040780040479800000000001f0037008d
:102f0800ce40900000c2b30080cf500002003e00c7
:102f18001000200065003700ce409000f0c2b300da
:102f280080cf500004003600ce40900090c3b3001c
:102f380080cf5000020036000000eb005b00370035
:102f480080c0b300504798000c003700ce40900076
:102f5800f0c2b30080cf500004003600ce4090008d
:102f680090c3b30080cf5000020036000000eb0091
:102f78004e003700a0c0b300504798006000b8006a
:102f8800008fbe0038003700ce40900000c6b30066
:102f980080cf500004003600ce40900000ceb30031
:102fa80000c0400040479800ce40900000cdb300dc
:102fb80000c04000404798004e409000f04f50003d
:102fc800080036004e409000674050004047980087
:102fd8004e409000e94f500002003e000000eb0018
:102fe80032003700ce4090005e40900080cf500005
:102ff800020039000000eb002c0037005e40900012
:103008000080fb008000eb001e0178008191b90070
:103018009e019000809ab900840178000301410064
:103028009e0178000018b800010141008200780074
:103038004e4190000281fb008001eb00021f40001e
:10304800039748004e009000100078008000e800c8
:103058004e009000010878004e00900010007800a3
:103068001040780040479800ce40900000c2b3005e
:1030780080cf5000c4ff3e006e4090000004e00086
:10308800050032001e0078009e00900060001000cd
:10309800e0801800008fbe001e0078009e0090009f
:1030a8005e0190000089be00100020000080fa0038
:1030b800000006000000fa0001208000f08f2f00b9
:1030c8000080600000a0a000002088000000000030
:1030d80001208000007020008080600000402000f7
:1030e800808f5000faff3a000004a9000164a9008b
:1030f80001a4a9000064a90081208000f0f32f003a
:10310800008060000060a00080208800812080008e
:1031180000fc2f00008060008020880013c4a900f4
:1031280012e4a80091208000f08f2f0080806000ba
:1031380000502000010070009020880012c4a900ef
:1031480091208000800320000100700090208800fa
:103158009120800080ff2f00008060000020a000e8
:103168009020880001208000f08f2f0000806000f0
:10317800002088000000000001208000000e2000d0
:10318800008060000000e000fbff3a00f0012c0026
:10319800302088003b0007006d00070030e4a800dd
:1031a80081218000c0ff2f00008060000000a00087
:1031b800802188002a24ef005021800040218800c7
:1031c8004021800010218800102180000021880003
:1031d800f4d1bf000000fb00e20f500007003200ee
:1031e800e30f500008003200e10f500009003a00d8
:1031f800c0402000008088000700370040402000c1
:10320800008088000400370080402000008088008b
:1032180001003700000000000230ef0060002000cd
:1032280020808800a0aa2a0030808800a0aa2a004e
:1032380040808800a0aa2a00508088005e0007000d
:10324800cb000700110ea800d426ef00a13680009d
:1032580000f82f00808060008002200001007000cc
:10326800a036880031348000f00f2c008080600088
:1032780000e0200001007000303488000080fa006f
:10328800000006000000fa00f02bef00f22bef0020
:1032980001cba90001aba80001588000f0fc2f0069
:1032a800008060000050a00000588800015880008d
:1032b800c0ff2f00008060000058880060042000d4
:1032c80010588800700020007058880020442000a2
:1032d8006058880000002100205888000000210064
:1032e8003058880001eba80011cba90011aba90048
:1032f80081588000f0fc2f00008060000050a00082
:103308008058880081588000c0ff2f00008060002e
:103318008058880020022000905888007000200003
:10332800f058880000442000e0588800000a210076
:1033380070004000a0588800000a2100700040007a
:10334800b058880011eba8000080fa0000000600c1
:103358000000fa000004a800c1208000c0ff2f0070
:1033680000806000c02088008121800000fe2f00be
:10337800010070008021880000228000ff006000aa
:103388000054230001007000002288003064a80067
:103398004064a9000121800000ff2f000080600028
:1033a800a000b300002188001404a8000004a900ac
:1033b8000080fa00000006000000fa000c24ef006c
:1033c8000a24ef002468a8000c24a8008142800089
:1033d800f0ff2800808060000000260001007000d7
:1033e800804288000080fa00000006000c00fa0005
:1033f800600b21008200200080007800c01e2100a0
:103408008ff70700c01e210090007800a0aa2a00ac
:10341800808f500016003a00c01e210090009000d6
:10342800401e210011009800c01e2100a00090003d
:10343800401e210021009800c01e2100b00090000d
:10344800401e210031009800401e2100100090000d
:10345800c08c8800401e210020009000d08c88007d
:10346800401e210030009000b08c880029003700f1
:10347800c01e210090007800b0bb2b00808f500048
:1034880024003a00c01e210010009000cf80de000a
:1034980074f6070072712b00138d2300c7f607001e
:1034a800008fbe00c01e210020009000cf80de00eb
:1034b8006cf60700d27b230063582300bff6070091
:1034c8002007980031079800c01e210030009000a6
:1034d800cf80de0063f60700d27b23006358230009
:1034e800b6f6070040079800510798004e01900073
:1034f800de0190002e009000be0090001e037800b0
:103508009e0390000202be000001be000600be003d
:10351800b2f707000080fa00000006000000fa0079
:10352800f4d1bf000000fb00e20f5000070032009a
:10353800e30f500008003200e10f500009003a0084
:10354800401e21003000900007003700401e210077
:103558001000900004003700401e21002000900059
:10356800010037000000eb000080fa0000000600b0
:103578000000fa000421ef000068a9000142800061
:103588000000270001007000004288002068a800a1
:103598000021ef00009d200010088800210880000d
:1035a800f0fc2f00008060000050a0002008880078
:1035b80005e1a8000080fa00000006000200fa00f9
:1035c800000f78001e0078008040eb001150980032
:1035d8001e0078008040eb00015098000080fa003f
:1035e800000006000600fa001007980041479800fe
:1035f8001e009000005090000040e8006f4f6000ef
:103608001e009000105090009e4f500002003a009b
:10361800100020000b0037001e00900000509000a2
:103628000080fb009e00900000804000ce4090008b
:10363800014878001e0090009e40780001509800d4
:103648000000eb000080fa00000006000400fa0009
:10365800000f7800110798001e0078009050900025
:103668001e0078000050900080cf500002003a0001
:10367800100020000f0037001e0078001050900046
:103688000080fb009e007800008040009040780099
:103698001e009000014878001e007800105090002d
:1036a8000040e800ef4060001e00780011509800cc
:1036b8000000eb000080fa00000006000a00fa0093
:1036c80010079800210798003207980043079800d0
:1036d8000000eb00000f7800090037001e0fe8001b
:1036e8003e0090009e007800808f50000400390052
:1036f8004e0090001e087800100020000a003700d5
:103708002e0090001e004000800078001e009000ef
:10371800ceff07000000e000f0ff32004e009000ee
:103728001e0878000000eb000080fa000000060088
:103738000200fa00000f78001e0078008050900008
:103748001e007800115098000080fa000000060062
:103758000200fa00000f78001e0078000050900068
:103768000080fb00f00040001e0078001050900020
:103778000080fb0080805000f0002800008060007e
:103788000000e00004003d000000e90001ff2f00f8
:10379800008070000000e8000080fa0000000600c9
:1037a8000200fa00000f78001e0078008050900098
:1037b8001e0078001050900000c068000080fb00d8
:1037c8000000e9004f00de00004078000080fa00a9
:1037d800000006000e00fa00300798004107980024
:1037e8005207980063079800001c210073ff070028
:1037f800201d210071ff07005e019000ee0190007e
:103808004418dd00cc10de00810070004410dd009b
:103818000001be003e009000ce0090001bf607009d
:10382800e509b900e002b90084017800030141000c
:10383800530020000300b800010141008200780015
:1038480065005000e0805800008fbe001e00780020
:103858009e009000a2002000030020004df5070004
:10386800008fbe009e00780021079800919080008c
:10387800809080002e01900091f40700a0908000b5
:103888006bf407000080fa00000006000400fa004c
:10389800100798000000eb00000f780005003700c3
:1038a8001e0090001e00400010407800080007002d
:1038b8001e0fe8001e0090001e0040001040780017
:1038c8000004e000f6ff3a000080fa00000006005d
:1038d8000200fa00004f780011118000002020003b
:1038e800008060000000e00003003a001e00fb00ba
:1038f80080f4070007003700000000001e40780031
:1039080080407800001c210036ff0700e10f5000be
:10391800faff32000080fa00000006000400fa00f6
:10392800100798009e009000201d210047ff070007
:10393800000f78001e007800e10f500002003a00e6
:1039480010002000010037000000eb000080fa00a2
:10395800000006000000fa0040a7a900413a8000d4
:1039680000fc2f0000806000e001b300403a8800ae
:10397800213a8000f0f32f0000806000203a880090
:10398800213a800000fe2f0000806000203a880065
:10399800313a800000e02f00808060009002200013
:1039a80001007000303a880000000000113a8000e1
:1039b80000022000008060000000e000fbff3200f1
:1039c8000080fa00000006000000fa000e2eef004a
:1039d800022eef00c0002000007088000a8ea900a7
:1039e8000c8ea9001e2eef00122eef00102eef00f5
:1039f8001a8ea9001aaea9001c8ea9001caea90037
:103a08000080fa00000006000200fa001070800032
:103a18004200de0061406000004f780010708000b6
:103a28004300de0061406000104798001e407800a7
:103a38000004e00006003a001e4090000004e00088
:103a480003003a0010c0b300f4f1b70011003700ca
:103a58001e407800e14f500006003a001e409000da
:103a68000004e00003003a0020c0b300f4f1b700fe
:103a7800080037001e4078000004e00005003a0006
:103a88001e409000e14f500002003a0030c0b300e1
:103a9800f4f1b7000080fa00000006000000fa0008
:103aa800acff0700c8ff0700d7ff070081fd07002c
:103ab8000080fa00000006000000fa0092f1a80059
:103ac8000080fa00000006000000fa0092f1a90048
:103ad8000080fa00000006000000fa0092d1a80059
:103ae8000080fa00000006000000fa0092d1a90048
:103af8000080fa00000006000000fa009231a800d9
:103b08000080fa00000006000000fa009231a900c7
:103b18000080fa00000006000000fa009211a800d8
:103b28000080fa00000006000000fa009211a900c7
:103b38000080fa00000006000200fa00004f78003a
:103b48001e4078000004e00002003a00deff070093
:103b5800040037001e407800e14f500001003a0091
:103b6800d5ff07000080fa00000006000200fa00f6
:103b7800004f78001e4078000004e00002003a0080
:103b8800d9ff0700040037001e407800e14f5000bd
:103b980001003a00d0ff07000080fa00000006008c
:103ba8000200fa00004f78001e4078000004e00090
:103bb80002003a00d4ff0700040037001e407800d6
:103bc800e14f500001003a00cbff07000080fa00e7
:103bd800000006000200fa00004f78001e4078003e
:103be8000004e00002003a00cfff0700040037009d
:103bf8001e407800e14f500001003a00c6ff070060
:103c08000080fa00000006000000fa0092d1bf0010
:103c18000080fa00000006000400fa006000b80006
:103c2800008fbe009dff070099f507003bfe0700c7
:103c3800e0908800e2908000706626000090b9004d
:103c4800c288de004f90de0000805000a08c880003
:103c580018f60700e08c8800e0908000cf80de0036
:103c680080f40700d2cc2c00c3dc2300d3f4070077
:103c7800008fbe0002002000a34724001e00780029
:103c88009e009000cdf4070055f40700000078006e
:103c9800908d88001e0078009e009000e3f50700d4
:103ca8000b00370080218000700060000000e000f9
:103cb800010032003064a900812180000004200046
:103cc800008060000000e000010032003064a900bc
:103cd80080218000680060000000e000f1ff3a00e9
:043ce800d2ff3700d0
:020000040000fa
:103cec00fc1100001400000082000000050202001c
:103cfc00c0e8030003000300000081000100000085
:103d0c00040002000a0000004011000052000000f4
:103d1c0080000000921100002e00000080000000c6
:103d2c00e4110000180000008000000000100000ea
:103d3c00a000000080000000a0100000a000000007
:103d4c00800000001c120000040000008000000035
:103d5c0010120000060000008200000000cc5d0084
:103d6c0017ccff00c01100002400000080000000f0
:103d7c001612000006000000800000000000000089
:020000040000fa
:04afe000dfff00008f
:020000040000fa
:04afe400ffff00006b
:020000040000fa
:04afe80060ff000006
:020000040000fa
:04afec009bff0000c7
:020000040000fa
:04aff00039ff000025
:020000040000fa
:04aff400ffff00005b
:00000001FF
